:100000000C9458000C9480000C9480000C94800098
:100010000C9480000C9480000C9480000C94800060
:100020000C9480000C9480000C9480000C94800050
:100030000C9480000C9480000C9480000C94800040
:100040000C9499050C9480000C9409060C94E3051B
:100050000C9480000C9480000C9480000C94800020
:100060000C943B060C948000000000002500280042
:100070002B00040404040404040402020202020229
:10008000030303030303010204081020408001025C
:1000900004081020010204081020000000080002DB
:1000A00001000003040700000000000000005A07E0
:1000B00011241FBECFEFD8E0DEBFCDBF11E0A0E01E
:1000C000B1E0ECE1F2E102C005900D92A436B10777
:1000D000D9F722E0A4E6B1E001C01D92A03DB2072D
:1000E000E1F710E0C8E5D0E004C02197FE010E94CE
:1000F0000609C735D107C9F70E9493070C940C096C
:100100000C94000090E0FC01E656FF4F2491FC01A6
:10011000EA57FF4F3491FC01EE58FF4FE491EE2374
:10012000C9F0222339F0233001F1A8F4213019F16C
:10013000223029F1F0E0EE0FFF1FE859FF4FA591A3
:10014000B4918FB7F894EC91611126C030953E239D
:100150003C938FBF08952730A9F02830C9F0243090
:1001600049F7809180008F7D03C0809180008F7758
:1001700080938000DFCF84B58F7784BDDBCF84B5DB
:100180008F7DFBCF8091B0008F778093B000D2CF6E
:100190008091B0008F7DF9CF3E2BDACF3FB7F89436
:1001A0008091B3019091B401A091B501B091B601D5
:1001B00026B5A89B05C02F3F19F00196A11DB11DC2
:1001C0003FBFBA2FA92F982F8827BC01CD01620FFE
:1001D000711D811D911D42E0660F771F881F991FB9
:1001E0004A95D1F7089508950895AF92BF92CF929E
:1001F000DF92EF92FF920F931F93CF93DF936C01E7
:100200007B018B01040F151FEB015E01AE18BF08C7
:10021000C017D10759F06991D601ED91FC91019079
:10022000F081E02DC6010995892B79F7C501DF9191
:10023000CF911F910F91FF90EF90DF90CF90BF90E3
:10024000AF900895FC01538D448D252F30E0842F0D
:1002500090E0821B930B541710F0CF9608950197EE
:100260000895FC01918D828D981761F0A28DAE0FDB
:10027000BF2FB11D5D968C91928D9F5F9F73928F62
:1002800090E008958FEF9FEF0895FC01918D828D8E
:10029000981731F0828DE80FF11D858D90E008955B
:1002A0008FEF9FEF0895FC01918D228D892F90E0B3
:1002B000805C9F4F821B91098F739927089587E275
:1002C00092E00E94530121E0892B09F420E0822F63
:1002D000089580E090E0892B29F00E945F01811150
:1002E0000C9400000895FC01A48DA80FB92FB11D36
:1002F000A35ABF4F2C91848D90E001968F7399275C
:10030000848FA689B7892C93A089B1898C91837039
:1003100080648C93938D848D981306C00288F38932
:10032000E02D80818F7D80830895EF92FF920F935F
:100330001F93CF93DF93EC0181E0888F9B8D8C8D91
:1003400098131AC0E889F989808185FF15C09FB785
:10035000F894EE89FF896083E889F9898081837048
:10036000806480839FBF81E090E0DF91CF911F91F7
:100370000F91FF90EF900895F62E0B8D10E00F5F18
:100380001F4F0F731127E02E8C8D8E110CC00FB6EE
:1003900007FCFACFE889F989808185FFF5CFCE0186
:1003A0000E947301F1CFEB8DEC0FFD2FF11DE35A8D
:1003B000FF4FF0829FB7F8940B8FEA89FB89808109
:1003C0008062CFCFCF93DF93EC01888D8823B9F083
:1003D000AA89BB89E889F9898C9185FD03C0808150
:1003E00086FD0DC00FB607FCF7CF8C9185FFF2CFCD
:1003F000808185FFEDCFCE010E947301E9CFDF91AF
:10040000CF91089520918501260F3327331F213284
:100410003105ECF42091FD01FC0190E080E02430F6
:1004200069F082E00895A09185012191AC014B59BA
:100430005E4FA40FB52FB11D2C930196861798F32C
:1004400080918501680F6093850180E0089581E0C7
:1004500008951092FD0181E08093FC011092D70174
:1004600061E082E10E94820061E083E10E948200FB
:10047000E9EBF0E080818E7F808380818D7F8083B7
:1004800088E48093B80085E48093BC000895CF93FE
:10049000DF9391E0909364018823B9F0C091B80094
:1004A000D091BA008091BC008A7B8093BC0060E050
:1004B00082E10E94820060E083E10E9482000E944B
:1004C0002902D093BA00C093B800DF91CF9108956C
:1004D0008F929F92AF92BF92CF92DF92EF92FF9254
:1004E0000F931F93CF93DF93D0912602D13208F060
:1004F000D7C0182FC09125020E94CE006B017C014D
:100500008091FD0181116BC082E08093FD01109309
:10051000FC018FEF8093FB011092FA01D093F90157
:10052000A5E0B2E0E9EDF1E080E0D81391C01092CF
:10053000D8018091D801CC0FC82BC093D8018091ED
:10054000D701813009F088C01092D7010E94CE00F7
:100550006B017C018091D8018093BB008091FF01E9
:1005600090910002A0910102B0910202892B8A2B86
:100570008B2BA1F00E94CE000091FF011091000290
:1005800020910102309102026C197D098E099F09A8
:10059000061717072807390708F442C08091BC00E6
:1005A00083FDD8CF85EC8093BC000E94CE006B0108
:1005B0007C018091FD01823009F450C08091FB01E3
:1005C0008F3F09F46FC08091FB01803209F46CC049
:1005D0008091FB01803309F469C084E026C08091DA
:1005E000FF0190910002A0910102B0910202892BBB
:1005F0008A2B8B2B09F484CF0E94CE008090FF01C0
:1006000090900002A0900102B09002026C197D0946
:100610008E099F0986169706A806B90608F070CFBE
:100620008091FE010E94470285E010920402109220
:10063000260210920302DF91CF911F910F91FF903C
:10064000EF90DF90CF90BF90AF909F908F900895E4
:100650009D9191938F5F69CF85EEA5CF8091FF012A
:1006600090910002A0910102B0910202892B8A2B85
:100670008B2B09F49ECF0E94CE000091FF011091B8
:10068000000220910102309102026C197D098E094D
:100690009F09061717072807390708F08ACFC0CF28
:1006A00081E0C3CF80E0C1CF82E0BFCF83E0BDCF88
:1006B000CF92DF92EF92FF920F931F93CF93DF932E
:1006C000D82FC62F613208F098C00E94CE006B016F
:1006D0007C018091FD0181116BC081E08093FD015F
:1006E0008093FC019FEF9093FB011092FA019C0F05
:1006F0009093F9018093D8018091D801DD0FD82B18
:10070000D093D8018091D701813009F078C0109240
:10071000D7010E94CE006B017C018091D8018093AB
:10072000BB008091FF0190910002A0910102B09165
:100730000202892B8A2B8B2BA1F00E94CE00009104
:10074000FF011091000220910102309102026C1908
:100750007D098E099F09061717072807390708F42E
:1007600048C08091BC0083FDD8CF85EC8093BC004D
:100770000E94CE006B017C018091FD01813009F463
:1007800040C08091FA018C1710F4C091FA01E9ED94
:10079000F1E0A7EBB1E080E08C1355C08C2FDF9126
:1007A000CF911F910F91FF90EF90DF90CF90089520
:1007B0008091FF0190910002A0910102B09102028C
:1007C000892B8A2B8B2B09F484CF0E94CE000091B9
:1007D000FF011091000220910102309102026C1978
:1007E0007D098E099F09061717072807390708F0A2
:1007F00070CF8091FE010E944702C0E0CFCF85EE0E
:10080000B5CF8091FF0190910002A0910102B091BB
:100810000202892B8A2B8B2B09F4AECF0E94CE00CB
:100820000091FF011091000220910102309102021B
:100830006C197D098E099F090617170728073907C4
:1008400008F09ACFD6CF91919D938F5FA5CF089551
:10085000E091AD018091AC01E81730F4F0E0E9548B
:10086000FE4F808190E008958FEF9FEF0895909163
:10087000AD018091AC012FEF3FEF981748F4E92FBD
:10088000F0E0E954FE4F208130E09F5F9093AD018E
:10089000C90108958091AC019091AD01891B990B1C
:1008A0000895CF92DF92EF92FF920F931F93CF9311
:1008B000DF937C01CB018A0120910302222389F07E
:1008C000EB016B01C40ED51ECC15DD0569F06991F5
:1008D000D701ED91FC910190F081E02DC7010995C0
:1008E000F3CF642F0E940202C801DF91CF911F91C4
:1008F0000F91FF90EF90DF90CF900895CF93DF930B
:100900001F92CDB7DEB76983209103022223F9F04D
:1009100020912602203258F021E030E0FC013383A0
:10092000228390E080E00F90DF91CF910895809135
:100930000402E82FF0E0EB5FFD4F998190838F5F19
:10094000809304028093260281E090E0ECCF61E086
:10095000CE0101960E940202F7CF90E080E0089558
:10096000CF93C62F91E09093030295E190932502D7
:100970001092040210922602682F84EC92E00E94EA
:100980007E046C2F84EC92E00E947E0481E0CF9183
:100990000C946802FC0101900020E9F73197AF0147
:1009A000481B590BBC0187E292E00C94F5008F9232
:1009B0009F92AF92BF920F931F93CF93DF93CDB7C8
:1009C000DEB7A1970FB6F894DEBF0FBECDBF19A258
:1009D000423008F44AE08E010F5D1F4F842E912CA7
:1009E000B12CA12CA50194010E94E408E62FB901C5
:1009F000CA01EA30F4F4E05DD801EE938D01232BB7
:100A0000242B252B79F790E080E0109719F0CD0189
:100A10000E94CA04A1960FB6F894DEBF0FBECDBFE8
:100A2000DF91CF911F910F91BF90AF909F908F90CA
:100A30000895E95CE1CF91E09093030295E19093F2
:100A400025021092040210922602682F84EC92E094
:100A50000E947E0480E00E94680261E085E10E94BD
:100A600058031092AD018093AC01882329F084ECE7
:100A700092E00E94370408958FEF089591E09093DB
:100A8000030296E39093250210920402109226022C
:100A9000682F84EC92E00E947E0480E00E9468024D
:100AA00061E086E30E9458031092AD018093AC018F
:100AB000882329F084EC92E00E94370408958FEF98
:100AC000089585ED8093BC008091FF019091000214
:100AD000A0910102B09102020796A11DB11D23E071
:100AE000B695A795979587952A95D1F72091BC0043
:100AF00024FD03C01092FD0108954091FF01509123
:100B000000026091010270910202452B462B472B97
:100B100069F30097A105B10541F02AE22A95F1F7A2
:100B200000C00197A109B109E1CF8091FE010C94A9
:100B300047021F920F920FB60F9211242F933F93EB
:100B40008F939F93AF93BF938091AF019091B0012A
:100B5000A091B101B091B2013091AE0123E0230F19
:100B60002D3758F50196A11DB11D2093AE0180933C
:100B7000AF019093B001A093B101B093B201809105
:100B8000B3019091B401A091B501B091B601019665
:100B9000A11DB11D8093B3019093B401A093B50141
:100BA000B093B601BF91AF919F918F913F912F91DB
:100BB0000F900FBE0F901F90189526E8230F0296F6
:100BC000A11DB11DD2CF1F920F920FB60F9211240B
:100BD0002F933F934F935F936F937F938F939F9345
:100BE000AF93BF93EF93FF9387E292E00E9473016C
:100BF000FF91EF91BF91AF919F918F917F916F91F5
:100C00005F914F913F912F910F900FBE0F901F90CA
:100C100018951F920F920FB60F9211242F938F9356
:100C20009F93EF93FF93E0913702F0913802808118
:100C3000E0913D02F0913E0282FD1BC090818091C7
:100C400040028F5F8F7320914102821741F0E09143
:100C50004002F0E0E95DFD4F958F80934002FF91E7
:100C6000EF919F918F912F910F900FBE0F901F903A
:100C700018958081F4CF1F920F920FB60F92112416
:100C80002F933F934F935F936F937F938F939F9394
:100C9000AF93BF93EF93FF938091B900887F803625
:100CA00009F44AC0F0F5883209F4A7C018F580317C
:100CB00009F49BC0B8F4882309F4F9C0883009F41A
:100CC00094C0FF91EF91BF91AF919F918F917F91D0
:100CD0006F915F914F913F912F910F900FBE0F90A9
:100CE0001F901895883109F488C0803251F780939D
:100CF000FB0114C0803409F49DC040F48033B9F383
:100D00008833F9F68093FB0185ECB0C0803509F497
:100D100085C0883509F496C0883499F60E9461052B
:100D2000D0CF883909F48CC038F5883729F050F4D1
:100D3000883611F0803729F683E08093FD01109208
:100D4000A70157C0883809F47BC0803919F0803872
:100D500009F0B7CF8091A701803208F071C0E0910F
:100D6000A70181E08E0F8093A7018091BB00F0E086
:100D7000E957FE4F80833DC0803B39F0E0F4803A74
:100D800009F479C0883A09F09CCF84E08093FD0192
:100D90001092860110928501E091AA01F091AB01B9
:100DA00009958091850181110FC081E080938501B3
:100DB0001092650109C0803C09F4A6CF883C09F473
:100DC000A3CF883B09F07DCFE091860181E08E0FB3
:100DD00080938601F0E0EB59FE4F80818093BB0049
:100DE000909186018091850129C08091D8018093DE
:100DF000BB0085EC8093BC0064CF9091FA01809198
:100E0000F901981758F5E091FA0181E08E0F80936F
:100E1000FA01F0E0E752FE4F8081E9CFE091FA015C
:100E200081E08E0F8093FA018091BB00F0E0E752E1
:100E3000FE4F80839091FA018091F9019817C8F2D2
:100E400085E8D8CFE091FA0181E08E0F8093FA0116
:100E50008091BB00F0E0E752FE4F80838091FC015F
:100E600081115CCF81E08093D70184EA8093BC003C
:100E70001092FD0126CF85EC8093BC001092FD01FD
:100E80008091A701803230F4E091A701F0E0E957AA
:100E9000FE4F10826091A70170E0E091A801F091EF
:100EA000A90187E891E009951092A7010ACF109255
:100EB000FB0134CFE7E2F2E01382128288EE93E086
:100EC000A0E0B0E084839583A683B78324E031E07B
:100ED0003183208325EC30E03587248724EC30E013
:100EE0003787268720EC30E0318B208B21EC30E0F7
:100EF000338B228B22EC30E0358B248B26EC30E0D8
:100F0000378B268B118E128E138E148EE4ECF2E04A
:100F10001382128284839583A683B78386E191E04E
:100F2000918380830895789484B5826084BD84B56C
:100F3000816084BD85B5826085BD85B5816085BDD4
:100F400080916E00816080936E001092810080918C
:100F50008100826080938100809181008160809314
:100F60008100809180008160809380008091B10039
:100F700084608093B1008091B00081608093B00064
:100F800080917A00846080937A0080917A008260F8
:100F900080937A0080917A00816080937A008091BA
:100FA0007A00806880937A001092C100E091370245
:100FB000F091380282E08083E0913302F0913402B4
:100FC0001082E0913502F091360280E18083109228
:100FD0003F02E0913B02F0913C0286E08083E09189
:100FE0003902F0913A02808180618083E091390278
:100FF000F0913A02808188608083E0913902F0911B
:101000003A02808180688083E0913902F0913A024F
:1010100080818F7D80831092AD011092AC0110927F
:101020000402109226020E94290283EF90E090931E
:10103000AB018093AA0184EF90E09093A901809383
:10104000A80180E00E941B05C82F813109F4A8C0C7
:1010500084E291E00E94CA046C2F70E090E080E08E
:1010600040E10E94D70489E391E00E94CA0488E02D
:101070000E943E05C82F84E291E00E94CA046C2FB2
:1010800070E090E080E040E10E94D70489E391E0C5
:101090000E94CA04C0E0D0E08AE00E941B05A82E8E
:1010A0008BE00E941B05F82E89E00E941B05C82ECC
:1010B000BA2CAF2C82E00E943E05E82E84E00E940C
:1010C0003E05F82E86E10E943E05D82E8CE391E085
:1010D0000E94CA046C2D70E090E080E04AE00E941B
:1010E000D70481E491E00E94CA04B50190E080E059
:1010F0004AE00E94D70489E491E00E94CA046E2D60
:1011000070E090E080E04AE00E94D70481E591E041
:101110000E94CA046F2D70E090E080E04AE00E94D7
:10112000D70487E591E00E94CA046D2D70E090E03D
:1011300080E04AE00E94D70489E391E00E94CA045B
:101140000E94CE004B015C0184EFC82EDD24D394B5
:10115000E12CF12C0E94CE00681979098A099B09BB
:10116000683E734081059105A8F321E0C21AD108B9
:10117000E108F10888EE880E83E0981EA11CB11CDE
:10118000C114D104E104F10429F7209709F484CFB4
:101190000E945F01882309F47FCF0E9400007CCF6A
:1011A00069E186E00E94B00461EC85E00E94B00431
:1011B0006EE087E00E94B00468E388E00E94B0041B
:1011C00082E00E941B0553CFA1E21A2EAA1BBB1B73
:1011D000FD010DC0AA1FBB1FEE1FFF1FA217B30703
:1011E000E407F50720F0A21BB30BE40BF50B661F19
:1011F000771F881F991F1A9469F7609570958095DD
:1012000090959B01AC01BD01CF010895EE0FFF1F2A
:0C1210000590F491E02D0994F894FFCFB4
:10121C00000000009501F5002201E20153013101AB
:10122C004501000000007E045104AD0427044A046B
:10123C0037042804556E65787065637465642044C2
:10124C006576696365204944000D0A00564F433AA0
:10125C00007C434F554E543A007C5643454C4C3A17
:10126C00007C534F433A007C444953434841524716
:04127C00453A0000EF
:00000001FF
